:020000041A00E0
:10000000F84F00102901001A2D01001A2F01001AC3
:100010003101001A3301001A3501001AFAEEFF53BC
:100020000000000000000000000000003701001A7E
:100030003901001A00000000A732001A1D34001A0E
:100040003F01001A3F01001AF952021A3F01001A3B
:100050003F01001A3F01001A3F01001A3F01001A38
:10006000F98D021A3F01001A3F01001A3F01001AE0
:10007000D937021A0F39021AD539021A5F3C021A0F
:100080003F01001A3F01001A3F01001A3F01001A08
:100090003F01001A3F01001A3F01001A3F01001AF8
:1000A000F520021A3F01001ACB29021AFD15021A87
:1000B0003F01001A3F01001A3F01001A3F01001AD8
:1000C0003F01001A3F01001A3F01001A3F01001AC8
:1000D0003F01001A3F01001A3F01001A3F01001AB8
:1000E0003F01001A3F01001A3F01001A3F01001AA8
:1000F000000000003F01001A3F01001A3F01001AF2
:10010000000000003F01001A3F01001A3F01001AE1
:100110003F01001ADFF80CD048F066FD00480047A8
:10012000ED01021AF84F001005480047FEE7FEE710
:10013000FEE7FEE7FEE7FEE7FEE7FEE7FEE7FEE797
:100140001501001A7046704730B51F24FD4D2C6014
:10015000FD4CFE4DEC660024AC612C46646C44F012
:1001600001046C64FA4C6C6400BFF84C246C04F01D
:100170000104002CF9D0F74CF44DEC662C46246AAF
:1001800044F001042C624FF48040142424B1012C6B
:1001900005D0022C07D104E04FF0FF3012E0EE480A
:1001A00010E0EE480EE0142108E080EA500404F06C
:1001B0000104C0F34D0545EA8430491CB1F5004FF8
:1001C000F3D900BF00BF0B221823540444EA835420
:1001D0000443DE4D6C628020012424B1012C05D043
:1001E000022C09D105E04FF0FF3018E040F2023058
:1001F00015E040F2022012E001210CE080EA9004B8
:1002000084EAD00484EA101404F00104C0F3460523
:1002100045EAC410491CB1F5807FEFD900BF00BF8B
:100220000403CA4DAC621020012424B1012C05D076
:10023000022C07D104E04FF0FF3012E0622010E002
:1002400042200EE0012108E080EA900404F001045D
:10025000C0F3430545EA0410491CB1F5007FF3D90A
:1002600000BF00BFB94CA46A0443B84DAC62BC4C9B
:100270002C6200BFB54CE46904F00104002CF9D0F5
:10028000B44C0834B14DAC64B64CEC64AE4C2C6547
:100290006C65B04C8434AC6530BD2DE9F047044644
:1002A0004FF47A70B0490968A0FB01700146AF4A6B
:1002B0000023384647F0C5FF0022A0FB045701FB8E
:1002C000047100FB021104220023284647F0B9FF05
:1002D000814600BFB9F10000A9F10109FAD1BDE8DA
:1002E000F0872DE9F04385B00720A149086000BFE1
:1002F0009F48001D006800F001000028F8D09A48CF
:1003000000689C49884203D200209B49086003E0B2
:1003100047F2777098490860F32098490860984937
:10032000C1F82801954908310860091D0860091DB8
:100330000860F220924980310860091D0860091D9B
:1003400008608E4924390860091D0860091D08608D
:100350008A490C390860F320091D0860091D0860EE
:10036000F12088490860F320844988390860091D14
:100370000860091D0860091D0860091D0860091D45
:100380000860091D0860091D0860F2207D49A03938
:100390000860091D0860091D0860091D0860F62035
:1003A000764968390860091D0860F72073495C398F
:1003B0000860724954390860F22073490860091DC9
:1003C0000860091D0860091D0860091D0860091DF5
:1003D0000860091D0860091D0860F3206A498C3116
:1003E0000860091D0860091D0860091D0860091DD5
:1003F0000860091D0860091D0860091D0860614941
:10040000103108605F4908310860F2205E49083900
:100410000860F3205C49AC3108605A490C3108602F
:1004200056498C3908605749091D086055491039EB
:100430000860091D08600120544908600020886098
:100440000024494800685249884234D901244FF0B9
:10045000000910E04FEA890000F1805000684DF873
:1004600029004C4850F829104FEA890000F18050CB
:10047000016009F10109B9F1050FEBD300BF00BF1D
:1004800000BFBFF36F8F00BF00BF00BF27223849F6
:1004900048314148414B98474FF0000908E05DF86A
:1004A00029104FEA890000F18050016009F101092B
:1004B000B9F1050FF3D3F02039490860091D086030
:1004C000091D0860091D08604FF4AA4035490860FD
:1004D00040F203302D49C1F8040101208862122145
:1004E00021480268601CB2FBF0F0A1FB00500146FD
:1004F0001E4A0023284647F0A4FE24490863302101
:1005000019480268601CB2FBF0F0A1FB00500146E4
:10051000164A0023284647F094FE1C4948635021A0
:1005200011480268601CB2FBF0F0A1FB00500146CC
:100530000E4A0023284647F084FE1449886323218D
:10054000094831E00C52004000080001000005405D
:1005500000081306000800090380010003000100E1
:100560001C080006040800030000001000CA9A3BA3
:100570003014054000B4C404006D084024610840F4
:100580000060084020630840886608400050004032
:10059000000E2707F8A1041A2C31044001000010B6
:1005A000006C0840005100400268601CB2FBF0F093
:1005B000A1FB00500146FE4A0023284647F041FEB9
:1005C000FC49C8632221FC480268601CB2FBF0F0C1
:1005D000A1FB00500146F64A0023284647F031FEB1
:1005E000F44908640F21F4480268601CB2FBF0F083
:1005F000A1FB0051EE4A0023284647F022FEED49B8
:1006000048640A21EC480268601CB2FBF0F0A1FBD0
:1006100000500146E64A0023284647F012FEE5490D
:1006200088645021E4480268601CB2FBF0F0A1FB32
:100630000051DF4A0023284647F003FEDD49C86425
:100640005021DD480268601CB2FBF0F0A1FB0050B5
:100650000146D74A0023284647F0F3FDD5490865EF
:100660007821D5480268601CB2FBF0F0A1FB005075
:100670000146CF4A0023284647F0E3FDCD494865AF
:100680000A21CD480268601CB2FBF0F0A1FB0050CB
:100690000146C74A0023284647F0D3FDC54988656F
:1006A0006420FFF7FAFD40F28310C24908620A2075
:1006B000FFF7F3FD40F20310BE4908620120FFF787
:1006C000ECFD40F28310BB4908620120FFF7E5FD15
:1006D000C821B9480268601CB2FBF0F0A1FB0070B1
:1006E0000146B34A0023384647F0ABFD05461022C9
:1006F000002347F0A6FD401CAE4948624FF00A00B7
:10070000FFF7CBFD43F60951AB480268601CB2FB12
:10071000F0F0A1FB0051A64A0023284647F091FDC6
:1007200007461022002347F08CFD401CA149486277
:100730004FF00A00FFF7B1FD83209E4908629F48F1
:1007400000680A20FFF7A9FD00209A4908620846C0
:10075000D0F8000140F40020C1F8000105B0BDE868
:10076000F08330B502469648406920F40000944D6D
:10077000686140F2FF1000EB026068612846406942
:1007800040F4000068610BE08D484069C0F34D21E2
:100790008B484069C0F3080311B90BB9002030BD84
:1007A0008748406900F400000028EDD18448406982
:1007B000C0F34D2145F6BB3001FB00F42046EEE7C7
:1007C00030B57F48416CC1F30130421CC1F3074092
:1007D000441CC1F30125012000FA05F301F00200D9
:1007E00028B101F0800050B15800424307E001F009
:1007F000800020B901F0400008B95800424344EAA3
:10080000022030BD02464FF0FF33112A44D2DFE808
:1008100002F00E090A0B0C431923262943433437EF
:100820003A3D400000BF00BF00BF1046704765481A
:10083000406800F00A00022802D04FF0FF30F5E7D0
:100840000020F3E75E48806900F0010010B14FF02E
:10085000FF30EBE70620E9E75948016A1EE05848F7
:10086000016B1BE05648006C00F0010010B15448C9
:10087000406C00E00020014610E05148816C0DE022
:100880004F48C16C0AE04E48016D07E04C48416D8D
:1008900004E04B48816D01E01846C7E700BF01F056
:1008A000010008B9C1F304631846BFE72DE9F0431E
:1008B00080464FF0010901240026474600BF112F52
:1008C00046D2DFE807F0090C0E10124514393A3B06
:1008D0004545161D242B32004FF400463BE03A4EAE
:1008E00039E03A4E37E0394E35E0394E33E0384E94
:1008F00031E03348806CC0F38100401C44432AE05F
:100900002F48C06CC0F38100401C444323E02C48B6
:10091000006DC0F38100401C44431CE02848406D3A
:10092000C0F38100401C444315E02548806DC0F3AE
:100930008100401C44430EE00DE00CE0FFF740FF57
:100940000546E8B209FB00F9C5F30720444302E07D
:100950000020BDE8F08300BF1EB93846FFF752FF04
:100960000746002EABD006FB09F0B0FBF4F0F0E731
:1009700010B51348C46E240E04F01F042046FFF780
:1009800095FF0D49086010BD10B54FF0E0200069DB
:1009900020F003004FF0E0210861FFF7D3FB6FF375
:1009A00013000C490860FFF7CFFBFFF7E1FF13E0EE
:1009B00000CA9A3B0050004000000010003003289D
:1009C000000005400030044080A8120180F0FA02C7
:1009D000001BB70008ED00E0FFF783FC10BD00002E
:1009E0002DE9F04F8BB004468946174600200A9047
:1009F0000997F748844206D10FB1099703E02020F8
:100A000001F0F5F90990F348844206D10FB1099736
:100A100003E0212001F0EBF90990EF48844206D170
:100A20000FB1099703E0222001F0E1F90990EB48AA
:100A3000844206D10FB1099703E0232001F0D7F9D2
:100A400009904FF0FF3B00200790069000252E46AE
:100A50004FF001084EE00020089041E00898404423
:100A600000FB09FC00210907099841EA1011000761
:100A70000022A0FB083E01FB08E100FB02106246D9
:100A8000CDE900300023DDE9000147F0DAFBCDE9D4
:100A9000040104980390DDF814A00398B0F1004F0E
:100AA00004D90398404203900AF1010ABAF1000FF9
:100AB00002D0BAF5803F00D90FE0039858450BD219
:100AC000DDF80CB00026554608980790CDF8188040
:100AD000BBF1000F00D106E000BF0898401C089051
:100AE00008984045BAD300BFBBF1000F00D104E025
:100AF00008F10108B8F10F0FADD900BF002185EA58
:100B000001007140084302D10BB0BDE8F08F099895
:100B10000009069900FB01FC0846079908440021DA
:100B2000A0FB052301FB053100FB06100346CDE9C0
:100B300000206046002147F084FB02900298814526
:100B400003D90298A9EB000B02E00298A0EB090B75
:100B500064200BFB00F0B0FBF9FBBBF1030F35D2B7
:100B60009C48844218D1E06840F08000E060280A88
:100B700040EA0660C0B26060E8B22060E06800F061
:100B80007F00E060F021069801EA0010079901F06B
:100B90000F010843A06217E0E06840F08000E060C9
:100BA000280A40EA0660C0B26060E8B22060E068EF
:100BB00000F07F00E060F021069801EA001007993C
:100BC00001F00F010843A06201200A900A989BE7F8
:100BD00070B504460E467E48844203D1212106208A
:100BE00000F0CDFD7B48844203D12221092000F092
:100BF000C6FD7948844203D12321062000F0BFFDC1
:100C00007648844203D12421062000F0B8FD7148C3
:100C100084421ED10720A0600020A06000E025686B
:100C2000606900F001000028F9D18020206300BF36
:100C3000606900F020000028FAD000202063606086
:100C4000E06020622061E06460652065A5696569F7
:100C50001EE00720A0600020A06000E02568606919
:100C600000F001000028F9D10120E06500BF6069B3
:100C700000F020000028FAD00020E0656060E0600D
:100C800020622064A064A065E064606520656569F9
:100C90005248844201D1002060622046B268316827
:100CA000FFF79EFE4B48844203D1E06800F0C00588
:100CB00002E0E06800F0C005707930B1012806D08C
:100CC000022807D0032808D108E000BF09E045F05A
:100CD000010506E045F0020503E000BF45F003050D
:100CE00000BF00BF3079C0B145F008053079012858
:100CF00006D0022806D0032807D004280BD107E02D
:100D000000BF09E045F0100506E045F0200503E0CE
:100D100045F0300500E000BF00BFB07928B10128E0
:100D200002D145F0040501E000BF00BF00BF294823
:100D3000844202D1E8B2E06001E0E8B2E06070BD58
:100D400001290CD1234A904204D1026B42F0800267
:100D500002630EE0C26D42F00102C26509E01D4A65
:100D6000904203D1026B0022026302E0C26D0022B6
:100D7000C265704700B5034600211846FFF7E0FF43
:100D800000BD4FF416410160032141710021017142
:100D90008171816070474FF4E1310160032141713D
:100DA000002101718171816070474FF461410160E0
:100DB0000321417100210171817181607047054AF1
:100DC000904202D1CAB2026001E0CAB2026070472A
:100DD000001008400020084000100C4000200C408B
:100DE0000146F948814202D10868C0B270470868DC
:100DF000C0B2FBE72DE9F04F0746894692469B4675
:100E00004E465346BBF1010F24D100241FE04FF0A2
:100E1000FF3805E0B8F1000F00D106E0A8F10108A5
:100E2000786900F020000028F4D000BFB8F1000F6E
:100E300000D10EE0082507E016F8011B3846FFF741
:100E4000BEFF6D1E5B1E641C0DB1002BF4D1002B88
:100E5000DDD116E0002411E0786900F0200000B92F
:100E60000EE0082507E016F8011B3846FFF7A7FF3C
:100E70005B1E6D1E641C0DB1002BF4D1002BEBD159
:100E800000BF2046BDE8F08F2DE9F04305460F4630
:100E9000904699463C464346B9F1010F19D10022CC
:100EA00014E04FF0FF3602E006B905E0761E6869EF
:100EB00000F001000028F7D000BF06B908E028467E
:100EC000FFF78EFF04F8010B5B1E521C002BE8D1CC
:100ED00010E000220BE0686900F0010000B908E0B2
:100EE0002846FFF77DFF04F8010B521C5B1E002B08
:100EF000F1D100BF1046BDE8F083B349884204D168
:100F0000C16841F04001C16003E0C16841F04001A7
:100F1000C160704730B50B460021072B15D2DFE8C2
:100F200003F00406080A0C0E110001210DE0022155
:100F30000BE0042109E0082107E0802105E04FF4DF
:100F4000807102E04FF4007100BF00BF012A0AD196
:100F50009D4CA04203D144680C43446013E04468B4
:100F60000C4344600FE0984CA04206D1446840F224
:100F70008F358D432C40446005E0446840F20735CE
:100F80008D432C40446030BD01468F48814202D1E0
:100F90004069C0B270474869C0B2FBE70146486982
:100FA00000F0400008B1002070470120FCE7024635
:100FB000002040F00100CB7833B1012B06D0022B8A
:100FC00007D0032B08D108E000BF09E040F0400043
:100FD00006E040F0800003E000BF40F0C00000BF2A
:100FE00000BF4B78012B01D140F004000B78012B9E
:100FF00001D140F002008B78012B01D140F00800B4
:10100000714B9A4203D100F0CF03936002E000F0ED
:10101000CF039360704700218170C170012101707E
:101020004170704710B50B460021012A09D11C7888
:10103000012C01D141F002015C78012C01D141F079
:101040000401614CA04215D1012A10D1C46844F0BA
:101050008004C460002404604460C46824F08004F8
:10106000C4601024846241F00104046217E000248B
:10107000046214E0012A10D1C46844F08004C46002
:10108000002404604460C46824F08004C460102418
:10109000846241F00104046201E00024046210BD96
:1010A000012904D1426A42F00202426204E019B905
:1010B000426A02F03D0242627047012904D1426A4D
:1010C00042F00102426203E0426A02F03E024262E2
:1010D000704710B54C07A30E446A24F0380243F061
:1010E0000404224302F03F04446210BD30B50023E3
:1010F00011B1012904D101E0012302E0022300E043
:1011000000BF00BF012A03D104691C43046104E04D
:101110000469F3259D432C40046130BD30B50023A4
:1011200021B1012904D0022906D103E0102304E0F3
:10113000402302E0802300E000BF00BF012A03D16A
:1011400004691C43046104E00469F3259D432C40B9
:10115000046130BD01468869C0B270470022CB7877
:10116000012B13D142F010024B79012B01D142F037
:1011700020020B79012B01D142F00802124B984258
:1011800002D1CB79436501E0CB7943650B78012B24
:1011900001D142F001028B78012B09D142F0040207
:1011A000094B984202D18B79036501E08B79036585
:1011B0004B780BB942F00202034B984206D102F081
:1011C0003F03C36405E000000020084002F03F0335
:1011D000C364494B984204D1C36843F03803C360E9
:1011E00003E0C36843F03803C3607047424A90424B
:1011F0000BD1012904D1C26C22F00202C2640FE0BB
:10120000C26C42F00202C2640AE0012904D1C26C3D
:1012100022F00202C26403E0C26C42F00202C26425
:1012200070472DE9F0470446894692469846324871
:10123000844225D1B8F1000F14D0E068C5B22F4622
:1012400027F01007E7600123524649462046FFF782
:10125000D1FD064600BF606900F040000028FAD0CA
:10126000E56032E00123524649462046FFF7C2FDC1
:10127000064600BF606900F040000028FAD024E074
:10128000B8F1000F14D0E068C5B22F4627F0100760
:10129000E7600123524649462046FFF7ABFD06466C
:1012A00000BF606900F040000028FAD0E5600CE063
:1012B0000123524649462046FFF79CFD064600BFE3
:1012C000606900F040000028FAD03046BDE8F087A1
:1012D00013B5044601231A4601A92046FFF7A1FFD2
:1012E0001CBD70B504460D461646002332462946FD
:1012F0002046FFF796FF70BD0020084070B50546F8
:1013000035B1012D09D0022D0CD0032D14D10EE0E2
:101310001C2000F06CFD04460EE01D2000F067FD6F
:10132000044609E01E2000F062FD044604E01F2090
:1013300000F05DFD044600BF00BF204670BD2DE9F2
:10134000F04781460C464846FFF7D8FF0026054681
:1013500000232946A1FB047C06FB04C205FB0321F4
:10136000C04A384646F06DFF05462846BDE8F0877E
:1013700001464FF0FF30BC4A914201D100200DE000
:10138000BA4A914201D1012008E0B94A914201D103
:10139000022003E0B74A914200D10320704710B504
:1013A0000246106801248C402040C3B20BB10120DA
:1013B00010BD0020FCE730B5024610680C1D012569
:1013C000A5402840C3B20BB1012030BD0020FCE78E
:1013D00001228A40026070470A1D01239340036086
:1013E000704720B90A4601231370536003E00A4690
:1013F0000023537000BF70472DE9F04704460F46A5
:1014000015469948844206D09848844203D09848AB
:10141000844200D000BFA06A20F00300A062A06A4E
:10142000A0620020A0602061E060606840F00200DF
:101430006060606820F00200606087B92E463078F6
:1014400018B97068401EE06017E02046FFF790FF73
:1014500081467168FFF773FF401EE0600DE0A8460B
:10146000A06A20F00C00A062454698F8010001280F
:1014700003D1A06A40F00400A0624FF0FF3020606A
:10148000BDE8F087002141607047012904D142681E
:1014900042F00102426003E0426822F00102426031
:1014A0007047416841F002014160416821F002014A
:1014B0004160704710B50A7832B1012A07D0022A7C
:1014C00008D0032A0CD108E08A6882610AE08B68A0
:1014D000C36107E08B68036204E08B68436201E04C
:1014E00000BFFEE700BF42690B7803EB430407230C
:1014F000A3409A4342614A783AB142690B7803EBC0
:1015000043040123A3401A434261CA7842B14269AD
:101510000B7803EB43035B1C01249C402243426194
:101520008A7842B142690B7803EB43039B1C012488
:101530009C4022434261C26B0B78042404EB4304B9
:101540000323A3409A43C2630A7902F003020B7893
:10155000042404EB43039A40C36B1A43C26310BDD7
:1015600031B1012906D0022906D0032908D105E0AE
:10157000826107E0C26105E0026203E0426201E0CD
:1015800000BFFEE700BF704710B5826A0B7803EB1F
:1015900043040723A3409A4382624A783AB1826A9D
:1015A0000B7803EB43040123A3401A4382628A7839
:1015B00042B1826A0B7803EB43035B1C01249C401D
:1015C00022438262CA7842B1826A0B7803EB4303FA
:1015D0009B1C01249C402243826210BD024631B113
:1015E000012906D0022906D0032908D105E0D06AD6
:1015F0007047106BFCE7506BFAE7906BF8E7002040
:10160000F6E71EB504464FF0FF301749086000208A
:101610008DF8000001208DF801008DF803008DF891
:10162000020000208DF80400029469460E48FFF77E
:1016300041FF01210C48FFF728FF00BF0A4800685E
:1016400000F001000028F9D00748FFF72AFF1EBD6F
:1016500010B504464FF47A7104FB01F0FFF7D1FF97
:1016600010BD000040420F000040084000500840FC
:1016700000300C4000400C40F0B5002206E0F84E6F
:1016800056F82260F74F47F82260521C112AF6DB09
:10169000F54E766806F002065EB1F34E766806F007
:1016A000080686F0080626B14FF40046ED4F3E606E
:1016B00002E00026EB4F3E60EC4E766C06F0020630
:1016C00086F00206AEB3E94E366C06F0010686B32C
:1016D000E64E766CC6F30363E24E56F82360E34FA2
:1016E0007F6CC7F307477F1C7E43DE4F7E623E461A
:1016F000776ADE4E766CC6F30136761CB7FBF6F6DB
:10170000D84F7E62D94E766C06F04006AEB9D74E01
:10171000766C06F0800686B93E46776AD34E766CC4
:10172000C6F30126761C7600B7FBF6F6CD4F7E6237
:1017300003E0FFE70026CB4F7E620C201CE0CC4E7E
:1017400036F91050C94EA95901F0020686F002067A
:101750006EB1C1F30363C1F38704641CC14E56F834
:101760002360B6FBF4F6BF4F47F8206003E0002685
:10177000BC4F47F82060401C1028E0D9F0BD30B5C0
:101780000346102B01DD032030BD07292FDB25295F
:101790002DDCC3EB031000EB4000B64D2844405C49
:1017A00018B3B34830F91320501C58B1102909DC84
:1017B000072907DBAD481058C0F30360884201D108
:1017C0000120E1E7AA4830F91120501C08B9022095
:1017D000DAE7A648145824F07064C01440EA0360A5
:1017E0000443A24814500020CEE70320CCE7022097
:1017F000CAE72DE9F04104460F46F4B95FB19A48B3
:10180000406820F00C00984948600846406840F065
:10181000030048600AE09448406820F003009249C1
:1018200048600846406840F008004860002600E034
:10183000761C91488642FBDB64E0022C06D1032330
:10184000102200210C2000F075FC5BE0032C06D177
:10185000002310221321012000F06CFC52E0042C24
:1018600050D0052C4ED0062C14D137B97F48806952
:1018700040F001007D49886105E07C48806920F0E6
:1018800001007A498861002600E0761C7A48864289
:10189000FBDB37E0764830F91450681C10B90220A1
:1018A000BDE8F08137B97148285840F001006F4910
:1018B000685027E06D48285820F001006B496850B7
:1018C000072C06D100BF6948C06900F0010000285C
:1018D000F9D0082C06D100BF6448C06A00F00100AE
:1018E0000028F9D0092C0DD100BF6048006C00F031
:1018F00001000028F9D05D48006C00F0010008B933
:1019000000BFFEE70020CBE7F0B50246002400252B
:10191000002301265548406CC0F30367514850F836
:1019200027105143541E5148406CDFF850C100EA63
:101930000C00DFF838C1CCF84400514881421AD27B
:1019400001E05B1C760070004843DFF834C160455D
:10195000F7D3200440EA053040EA032040F040007D
:10196000DFF808C1DCF844C040EA0C00DFF8FCC036
:10197000CCF8440016E04348814211D2200440EAEA
:10198000053040EA032040F0C000DFF8E0C0DCF89A
:1019900044C040EA0C00DFF8D4C0CCF8440001E0B9
:1019A0000420F0BD0020FCE701463748814206D202
:1019B0002E48806920F004002C4A90610BE03348E7
:1019C000814206D22948806940F00400274A90618C
:1019D00001E005207047234881610020FAE710B537
:1019E0002B48FFF7E1FF01210620FFF702FF092145
:1019F0000620FFF7C4FE0620FFF786FF012109201D
:101A0000FFF7F7FE15210920FFF7B9FEFFF734FEB7
:101A1000002010BD0146A1F1110014286AD2DFE8B0
:101A200000F0683B694019146969690F0A696963C4
:101A30005E59544F4A451748406800F0010070470E
:101A400014484068C0F34000F9E712484068C0F30A
:101A50008000F4E70F484068C0F3C000EFE70000E3
:101A6000F4A6041A000000200030044000000540E5
:101A70000CA2041A66A2041A40420F003DCC00FFDB
:101A8000005F4C0900D01213C0E1E40040787D01F2
:101A9000001BB70000100540FD484068C0F3C010AF
:101AA000CDE7FB484068C0F30020C8E7F94840682C
:101AB000C0F34000C3E7F7484068C0F38000BEE7CA
:101AC000F4484068C0F3C000B9E7F2484068C0F38A
:101AD0000010B4E7EF484068C0F34010AFE7ED48AE
:101AE0004068C0F38010AAE7EA484068C0F3C0101D
:101AF000A5E700E000BF00BF0020A0E770B50446E6
:101B00000E46262C03DB002C01DC042070BD002EC9
:101B10007ED104EB8400E04901EB4000408898B39B
:101B200004EB840001EB40004088DC490844007964
:101B300000F0010040B304EB8400D74901EB400002
:101B40004088D649405820F0010004EB8401D24A75
:101B500002EB41014988D14A885004EB8400CE4908
:101B600001EB4000408811460844456808E004EB5A
:101B70008400C94901EB40004088C84908444568D1
:101B800005F001000028F2D104EB8400C24911F8ED
:101B900010002D280FD004EB8401BF4A12F8110069
:101BA000FFF738FF38B904EB8401BB4A12F8110083
:101BB0000021FFF71EFE04EB8400B74901EB400053
:101BC000C08830B304EB840001EB4000C088B34907
:101BD0000844007900F00100D8B104EB8400AE495C
:101BE00001EB4000C088AD49405820F0010004EBF3
:101BF0008401A94A02EB4101C988A84A885004EB34
:101C00008400A54901EB400040881146084401E0EA
:101C10002BE00EE0456808E004EB84009E4901EBF0
:101C2000400040889D490844456805F001000028AF
:101C3000F2D104EB8400984901EB400000792D2893
:101C400012D004EB8401944A02EB41010879FFF7BA
:101C5000E1FE002808D104EB84018F4A02EB410128
:101C600008790021FFF7C5FDAEE004EB84008A4946
:101C700011F810002D2813D004EB840011F8100087
:101C8000874931F910008549405C00F0010038B106
:101C900004EB8401804A12F811000121FFF7A9FD2D
:101CA00004EB84007C4901EB4000408898B304EBCE
:101CB000840001EB4000408878490844007900F036
:101CC000010040BB04EB8400734901EB40004088F5
:101CD0007249405840F0010004EB84016E4A02EB67
:101CE000410149886D4A885004EB84006A4901EB40
:101CF0004000408811460844456808E004EB840031
:101D0000654901EB4000408864490844456805F096
:101D100001000028F2D004EB84005F4901EB400091
:101D200000792D2815D004EB840001EB40000079E8
:101D30005B4931F910005949405C00F0010040B1A5
:101D400004EB8401544A02EB410108790121FFF7B9
:101D500050FD04EB8400504901EB4000C08898B36B
:101D600004EB840001EB4000C0884C490844007932
:101D700000F0010040BB04EB8400474901EB400048
:101D8000C0884649405840F0010004EB8401424AB3
:101D900002EB4101C988414A885004EB84003E4966
:101DA00001EB4000408811460844456808E004EB18
:101DB0008400394901EB40004088384908444568AF
:101DC00005F001000028F2D004EB8400324901EB59
:101DD0004000007A48B104EB84012F4A02EB410134
:101DE000087A3146FFF78AFE90E600208EE670B54D
:101DF0000446FFF741FC262C03DB002C01DC042009
:101E000070BD04EB8400244901EB400000792D28CB
:101E10002FD004EB840001EB40000079204931F918
:101E200010001E494058C0F3036604EB84001A49B1
:101E300001EB400000791A4931F910001749405C64
:101E400000F0010008B10020DAE704EB8400124939
:101E500001EB4000C088E8B304EB840001EB4000D4
:101E6000C0880E490844456805F0010090BB002079
:101E7000C6E704EB8400084911F81000084931F95D
:101E800010000649405C00F0010058B10020B7E79F
:101E9000001005400020054064A5041A000005401C
:101EA0000CA2041A04EB84006A4911F810006A4974
:101EB00031F9100069494058C0F3036604EB84000F
:101EC000644901EB4000C08820B104EB840001EBC1
:101ED000400000E008E0C08860490844456805F01B
:101EE000010008B900208BE75D4850F8260087E71D
:101EF00010B502460C460C2A14DB102A12DC564898
:101F000030F91210481C08B9022010BD53480B5874
:101F100023F47F73601EC0B243EA80034F480B5026
:101F20000020F2E70220F0E74C48006A40F0010090
:101F30004A4908624B4888624B4848624B480862ED
:101F40000020704749481B384449086348484863A3
:101F5000484888634848086300BF4048C06A00F0AA
:101F600001000028F9D000207047F0B504460D4666
:101F7000164640F2FF114FF4000040EA04600843A7
:101F8000DFF8D8C0CCF8140000BF3448406900F432
:101F900000000028F9D1002300E05B1C42F2107021
:101FA0008342FADB2D484069C0F34D2212B94FF04D
:101FB000FF30F0BDB2F5007F08D328484069C0F378
:101FC000080040F2FF1CACEB00011FE000BF491EFF
:101FD0004FF4000040EA04600843DFF880C0CCF80A
:101FE000140000BF1D48406900F400000028F9D12A
:101FF000002300E05B1C42F210708342FADB1748BA
:102000004069C0F34D279742E1D0491C2A603160F6
:102010000020CEE7FFB505460C4616461F46102D9C
:1020200001DC102C02DD042004B0F0BD01AA03A9DC
:102030002846FFF79AFF6A4602A92046FFF795FF58
:102040000099039848433060DDE901014843386056
:102050000020E9E764A5041A0CA2041A0000054058
:102060000000002062202000FA7F16041C000006F9
:10207000D3343E020EF003001060000610B53AB1F2
:10208000294B53F820300B43274C44F8203006E00E
:10209000254B53F820308B43234C44F8203010BD9F
:1020A000224A42F820107047204A803242F820101D
:1020B000704701461E4850F82100704770B504462D
:1020C0000D461646324629462046FFF7D7FF70BD1B
:1020D00010B503460C4621461846FFF7E1FF10BD38
:1020E00010B503460C4621461846FFF7DDFF10BD2C
:1020F00000B502461046FFF7DCFF00BD10B54AB13F
:10210000094B803353F820300B43074C803444F89C
:10211000203008E0044B803353F820308B43024CCE
:10212000803444F8203010BD00600F4000620F4042
:1021300000610F40F0B5074DD618C7014FF0040CF1
:102140000CFB0174E71704EB9777BF1045F8276085
:10215000F0BD0000006008402DE9F05F04460D4628
:10216000F648844204D11F210920FFF708FB09E04B
:10217000F348844204D120210920FFF700FB01E04D
:10218000BDE8F09FA88829890843298A084329883F
:1021900008431FFA80FBC4F800B0287B00F00F0B47
:1021A000C4F804B0E548844205D11A20FFF71FFEA9
:1021B0000027064604E01B20FFF719FE002706460D
:1021C0004FF000084FF0FF3A4FF0020916E008F117
:1021D000010000FB09FC624600233046394646F008
:1021E00030F882466869504508D208F10108B8F114
:1021F000FF0F03D94FF0000809F102096869504543
:10220000E5D32068C0B2206020684FF6FF7101EA74
:1022100008210843206009F0FF00206100BFAFE7FC
:10222000416801F00D01416070470146086800F007
:102230000F007047002141608160C2494161072160
:1022400001600021C160016170478021416000216F
:102250008160BD494161072101600021C1600161C8
:1022600070478021416000218160B84941610721A8
:1022700001600021C16001617047002141608160FF
:10228000B2494161072101600021C16001617047CD
:10229000012904D1426842F00202426003E0426830
:1022A00002F00D0242607047012904D1426842F0F9
:1022B0000102426003E0426802F00E024260704791
:1022C000012904D1426802F00702426003E042683B
:1022D00042F00802426070478AB28260704701464D
:1022E000886880B270472DE9F74F05460B460020FD
:1022F000D8605860586103E02846FFF7F0FF0646B3
:10230000E86800F004000028F6D10320286228467F
:10231000FFF78BFF072801D9012400E00024029871
:1023200000287ED124B9D3F80880D3F8009003E0C8
:10233000D3F808A0D3F800B05DE0E86800F0020030
:1023400010B319695868884229D0186888B93CB90F
:10235000FF212846FFF7C0FF5868401C58601EE068
:102360004FF6FF712846FFF7B7FF5868801C58608A
:1023700015E054B999F800102846FFF7ADFF09F1B0
:1023800001095868401C586009E0BBF80010284655
:10239000FFF7A2FF0BF1020B5868801C5860AF6971
:1023A00007F0010030B147F4007058614FF0FF3082
:1023B000BDE8FE8F17E02846FFF791FF06469868B4
:1023C00048B124B988F8006008F1010803E0AAF8D0
:1023D00000600AF1020A1CB9D868401CD86002E00B
:1023E000D868801CD860E86800F0040018B1D3E910
:1023F00003018842DFD11969586888429DD1D3E929
:102400000301884299D14FF480705861186810B167
:102410005868CDE705E0986808B1D868C8E700209B
:10242000C6E70298012869D150E0186888B93CB91C
:10243000FF212846FFF750FF5868401C58601CE0F9
:102440004FF6FF712846FFF747FF5868801C586019
:1024500013E04CB9D3E90002815C2846FFF73CFF4A
:102460005868401C586008E0D3E90002815A2846A9
:10247000FFF732FF5868801C5860AF6907F0010011
:1024800028B147F4007058614FF0FF3090E715E035
:102490002846FFF724FF0646986838B11CB9D3E9EF
:1024A00002128E5402E0D3E902128E521CB9D8688F
:1024B000401CD86002E0D868801CD860E86800F052
:1024C000040018B1D3E903018842E1D1E86800F0C3
:1024D000020018B1196958688842A6D1D3E90301EE
:1024E000884203D119695868884202D00F20686178
:1024F00002E04FF480705861002059E74FF0FF3040
:1025000056E70246D068084008B101207047002015
:10251000FCE710B5012A03D143690B43436104E092
:1025200043690F248C432340436110BD02469069E8
:10253000084008B1012070470020FCE70030084047
:1025400000500C4040420F00400D030080841E00EC
:102550000246D069084008B1012070470020FCE71E
:102560000162704710B5012A03D1436A0B434362ED
:1025700004E0436A03248C432340436210BD0000FF
:10258000F0B50246966926F0010696610E88F717A7
:1025900006EB17773F117F1EBF064FEA176C0F7BC4
:1025A0007F1EFFB24CEA072C0F797F1EFFB24CEA68
:1025B000074C8F797F1E4CEA076010608E7B761E79
:1025C00006F03F074E88761E67F39F260F7A7F1E20
:1025D000FFB246EA07478E7A761E47EA06605060E9
:1025E00000200E7C761EF606700D0E7D06F00106AC
:1025F00040EA8630CE7C06F0010640EA46304E7C4A
:1026000006F0010640EA06308E7C06F0010640EA3C
:10261000C6204E7FE6B1012E04D0022E26D0052E14
:1026200023D10AE00E88F71706EB9777BF107F1EBD
:10263000C7F3090740EA07401FE00E88F71706EBCB
:102640005777FF107F1EC7F3090740EA074014E0E1
:102650000F8807EB4706F71706EB5777FF107F1E2B
:10266000C7F3090740EA074007E000BF0E88761E5F
:10267000C6F3090640EA064000BF00BF022300BFC0
:102680005E0943EAC666304340F0806090608E6920
:102690002EB18E69761E46F48036D66001E00026A3
:1026A000D6600026D6610E7F70008E7F40EA06203D
:1026B0004E7F40EA0610CE7F012E01D140F080000F
:1026C000906102F50075002403E000262E602D1DA8
:1026D000641C802CF9D3F0BD10B5024691B16D4B4E
:1026E0009B6943F400636B4CA361002000E0401C35
:1026F000694B9842FBDB674B9B6943F00103654CD8
:10270000A36111E0634B9B6923F40063614CA361F7
:10271000002000E0401C604B9842FBDB5D4B9B6956
:1027200023F001035B4CA36110BD21B1826942F02B
:102730000102826103E0826922F001028261704736
:102740000161704741617047544B19700AB1012310
:1027500000E0002341EA4303C0F8043C7047F0B5B1
:1027600003460C4616464D4F3F781FB9200200F530
:10277000807102E000204FF4806103F5006503E002
:1027800037782F54761C401C8842F9DBF0BD024696
:1027900002F5006000EB012070472AB1012303EB32
:1027A0000113C0F8003C02E00B01C0F8003C704788
:1027B00078B502460B466C461846002132E010F808
:1027C000016BF610009D66F38E25009510F8016BE5
:1027D000F610009D66F34915009510F8016BF61090
:1027E000009D66F304050095401C10F8016BF6107F
:1027F000009D66F39E65009510F8016BF610009D34
:1028000066F35955009510F8016BF610009D66F3BC
:1028100014450095401C02F50075266845F82160B6
:102820004D1CE9B28029CADB78BDC0F8081C70478E
:10283000C0F80C1C7047C2690A43C2617047826AC3
:102840000A43826270470146086AC0B27047D0F8F6
:10285000201C41F00101C0F8201C7047D0F8241C56
:1028600041F00101C0F8241C704710B5C1F3090301
:10287000C2F3090443EA0443C0F8103C10BD10B58C
:1028800001F03F0302F03F0443EA0423C0F8143C84
:1028900010BD000000800040A08601004400002020
:1028A0002DE9F047054689461646002028604FF47A
:1028B00000185548854204D10020FFF798FA0446D5
:1028C00006E05248854203D10120FFF790FA044602
:1028D000701C09FB00F707EB44007900B0FBF1F036
:1028E000441E2002C6F10A0140EA414040EA0808BD
:1028F000C5F80080BDE8F087016801F0E06119B11A
:10290000016821F0E0610160016821F0FF010160D0
:10291000016821F4001101607047026822F0E06252
:102920000260026842EA016202607047026822F4B3
:102930008032026019B1026842F48032026070474E
:10294000026822F40012026019B1026842F4001217
:1029500002607047026822F00062026019B10268EA
:1029600042F000620260704710B5C36801248C40D9
:10297000A343C36022B1C46801238B401C43C460DD
:1029800010BD10B5012A05D1036801248C402343F2
:1029900003600CE0036803F0E0631BB1036823F0FD
:1029A000E0630360046801238B409C43046010BD16
:1029B000024602F1100050F82130C3F3891070472D
:1029C00010B503460C4603F1100050F8241012B164
:1029D00001F0004101E001F0804109B1012010BD8A
:1029E0000020FCE701464868704702460B465168E4
:1029F00013B101F0004101E001F0804109B1012073
:102A000070470020FCE7000000300E4000400E4000
:102A100070B50346F44A1C2B63D2DFE803F00E11B5
:102A200014171A1D202326292C2F3235383B3E41FE
:102A300044474A4D505356595C5F0021002053E0F3
:102A40000021012050E0012101204DE00021022061
:102A50004AE00121022047E00021032044E0012157
:102A6000032041E0002104203EE0012104203BE05E
:102A70000021052038E00121052035E00021062055
:102A800032E0012106202FE0002107202CE0012167
:102A9000072029E00221072026E00021082023E06A
:102AA0000121082020E0022108201DE0002109204A
:102AB0001AE00121092017E000210A2014E0012179
:102AC0000A2011E000210B200EE000210C200BE079
:102AD00000210D2008E000210E2005E000210F203C
:102AE00002E003210F2000BF00BF46000325B540D0
:102AF0001468AC431460450001FA05F514682C43D2
:102B0000146070BD0020B9490860B949C1F83001AE
:102B1000B64940310860B54960310860B349803139
:102B20000860B249A0310860B049C0310860AF49BF
:102B3000E0310860FF20AE49886008617047F0B559
:102B4000044600260027AA48C06922780121914046
:102B5000C9B2084008B10020F0BDA649206851F86C
:102B60002050217801208840C0B2A1498860217896
:102B700001208840C0B29E4908610020E8602861B9
:102B8000206AA8606069082872D2DFE800F0041BA0
:102B90004672A4A5A6A7E068286020696860A0889E
:102BA000C0F30B0040F41030217A01F0070140EA35
:102BB0008140217A01F0070140EA415040F00C4089
:102BC000E8608DE0E06828608B49E06951F82000FA
:102BD00068608A49E069085C00F00701606861F399
:102BE0001F30864AE169515C01F0070140EAC130BB
:102BF000834AE169515C01F0070140EA8140E169E3
:102C0000515C01F0070140EA415040F00640E860A5
:102C1000E069FFF7FDFE074662E07749A06951F8D9
:102C200020002860206968607449A069085C00F091
:102C30000701606861F31F30704AA169515C01F0BF
:102C4000070140EAC1306E4AA169515C01F00701F9
:102C500040EA8140A169515C01F0070140EA41501E
:102C600040F00940E860A069FFF7D2FE064637E071
:102C700030E06149A06951F820002860E06951F80E
:102C8000200068605D49A069085C00F00701606889
:102C900061F31F30594AE169515C01F0070140EAD4
:102CA000C130574AA169515C01F0070140EA8140F7
:102CB000E169515C01F0070140EA415040F00340F6
:102CC000E860A069FFF7A4FE0646E069FFF7A0FEF2
:102CD000074605E000BF00BF00BF00BF00203BE784
:102CE00000BF01204249086300BF4148006B00F06B
:102CF00001000028F9D0207D00F007004FF440418A
:102D000041EAC02006F01F0140EA410007F01F0120
:102D100040EA8110286101201EE70246354B53F836
:102D20002200012904D1036943F00103036103E098
:102D3000036923F00103036170470246052A3BD271
:102D4000DFE802F0030E19242F0029480068012350
:102D50008B40DBB2184008B1012070470020FCE72F
:102D60002348436801208840C0B203400BB10120D2
:102D7000F3E70020F1E71E48C06801238B40DBB277
:102D8000184008B10120E8E70020E6E71848836909
:102D900001208840C0B203400BB10120DDE70020D4
:102DA000DBE71348406901238B40DBB2184008B1D0
:102DB0000120D2E70020D0E70D48C36901208840F8
:102DC000C0B203400BB10120C7E70020C5E728B916
:102DD00001228A40D2B2064B9A6004E001228A4066
:102DE000D2B2034B1A6170471C31044010210040DD
:102DF000002000404800002038A7041AA8A7041AA1
:102E0000C4A7041A10B504461A210920FEF7B7FC1E
:102E10000720606740F277702067A06510BD30B56D
:102E2000022970D831B95369836193694362D369C8
:102E3000036312E0012906D15469C4619469846274
:102E4000D469446309E0022906D154690462946993
:102E5000C462D469846300E030BD1368012B08D1DB
:102E6000022903D803EBC104A34000E00023436020
:102E700008E0022904D8012303EBC104A34000E0C9
:102E8000002383605368012B0AD1022905D802234D
:102E900003EBC1040123A34000E00023436009E0E9
:102EA000022905D8022303EBC1040123A34000E05B
:102EB000002383609368012B26D1022905D80323C0
:102EC00003EBC1040123A34000E000234360C46B73
:102ED000022906D801EB81035D0040F2FF33AB40CD
:102EE00000E000239C43C463022907D89389C3F3FD
:102EF000090301EB81046400A34000E00023C46BDC
:102F00002343C3630AE021E0022905D8032303EB2E
:102F1000C1040123A34000E0002383601369012B57
:102F20000AD1022905D8042303EBC1040123A340DD
:102F300000E00023836009E0022905D8042303EBA5
:102F4000C1040123A34000E00023436000BF83E7E6
:102F500010B521B993694362D36903630CE0012979
:102F600004D194698462D469446305E0022903D1E1
:102F70009469C462D469846310BD10B5022972D803
:102F80009368012B12D11368022B0CD802290AD89E
:102F9000137803EB43035B0003EB41035B1C012449
:102FA00004FA03F300E00023036111E01368022B2D
:102FB0000CD802290AD8137803EB43035B0003EB18
:102FC00041035B1C012404FA03F300E00023436186
:102FD0005368012B11D11368022B0BD8022909D891
:102FE000137803EB43035B0003EB4103012404FA72
:102FF00003F300E00023036110E01368022B0BD8F9
:10300000022909D8137803EB43035B0003EB410368
:10301000012404FA03F300E000234361D368012B89
:103020000BD11368022B05D813781233012404FA4C
:1030300003F300E0002303610AE01368022B05D8C4
:1030400013781233012404FA03F300E000234361F0
:103050001369012B0BD1022906D801F115030124B4
:1030600004FA03F301E00CE00023036109E0022904
:1030700005D801F11503012404FA03F300E000234D
:10308000436110BD022902D801228A4000E00022DB
:1030900042677047024609B9506C7047012901D157
:1030A000906CFAE7022901D1D06CF6E70020F4E732
:1030B00030B5022968D8012A5CD1022905D801F16E
:1030C0001D04012505FA04F400E0002404669C6850
:1030D000012C13D11C68022C0DD802290BD81C68B6
:1030E00004EB44046400022505FB0144641C012533
:1030F00005FA04F400E00024046612E01C68022CC7
:103100000DD802290BD81C6804EB44046400022586
:1031100005FB0144641C012505FA04F400E00024C9
:1031200044665C68012C12D11C68022C0CD8022960
:103130000AD81C6804EB44046400022505FB014422
:10314000012505FA04F400E0002404661CE01C6874
:10315000022C0CD802290AD81C6804EB4404640031
:10316000022505FB0144012505FA04F400E00024D2
:10317000446609E0022905D801F11D04012505FA7C
:1031800004F400E00024446630BD70B5002409B1A9
:10319000012500E0002512B14FF4807600E0002602
:1031A000354313B14FF4803600E0002645EA0604AB
:1031B000446070BD70B5002409B1012500E0002510
:1031C00012B14FF4807600E00026354313B14FF47E
:1031D000803600E0002645EA0604846070BD19B11F
:1031E0004FF08042426002E04FF0804282607047C0
:1031F00010B519B14FF00044446002E04FF00044B4
:1032000084601AB14FF00054446002E04FF0005463
:103210008460036410BD0AB1416500E081657047B8
:10322000C1667047016770470246906E084008B15A
:10323000012070470020FCE772B6704762B6704705
:10324000EFF3108072B6704780F310887047B0FAC1
:1032500080F0704790FAA0F0704730BF704720BFF1
:1032600070470000EFF3108072B6704780F310884B
:1032700070471D484FF0FF010170002080F309885E
:103280001A48012101701A484FF08051016062B65E
:10329000FEE717484FF080510160704714484FF027
:1032A00080510160704772B6EFF3098028B1203871
:1032B00080E8F00F0F490968086000B50E488047A4
:1032C0005DF804EB0D480E490A78027009480D4973
:1032D0000A680260106890E8F00F203080F30988D7
:1032E0004EF0040E62B6704722ED00E02A00001096
:1032F00004ED00E030000010E733001A1F0000105A
:103300002000001038000010002058490880704745
:10331000704710B5044620461DF0D4F810BD10B516
:10332000044620461DF0CFF810BD10B51DF0CCF8B6
:1033300010BD10B51DF0C9F810BD10B504462046EB
:103340001DF0C7F810BD70B504461046001D4FF0C3
:103350008076051F28462E60051F28462C606FF0DA
:103360000106051F28462E604FF01236051F28461D
:103370002E604FF00336051F28462E604FF00236B0
:10338000051F28462E607610051F28462E60051F53
:10339000284629604FF01136051F28462E604FF051
:1033A0001036051F28462E604FF00936051F2846A7
:1033B0002E604FF00836051F28462E604FF0073666
:1033C000051F28462E604FF00636051F28462E6042
:1033D0004FF00536051F28462E604FF00436051FB6
:1033E00028462E6070BD10B51DF070F810BD10B5E8
:1033F000044620461DF06BF810BD10B51DF068F8AE
:103400001A480088401C194908800846008864282A
:1034100003DB0020088003F02DFA10BD10B5FFF784
:1034200021FF044612480078401C114908702046CC
:10343000FFF71CFF00F060FD00F061FC10BD10B54F
:103440001DF00CF94FF47A71B0FBF1F4601E4FF0EF
:10345000E02148610846006940F00500086108461F
:10346000006940F00200086110BD00006800002003
:103470001D000010174818481848194819481A48DC
:103480001A481B481B481C481C481D481D481E481C
:103490001E481F481F4820482048214821482248EC
:1034A00022482348234824482448254825482648BC
:1034B00026482748274828482848294829482A488C
:1034C0002A482B482B482C482C482D482D4800BF13
:1034D00070470000E0A7041AE4A7041AE8A7041A3A
:1034E000EAA7041AECA7041AEEA7041AF0A7041A14
:1034F000F2A7041AF4A7041AF6A7041AF8A7041AE4
:10350000FAA7041AFCA7041AFEA7041A00A8041AB2
:1035100002A8041A04A8041A06A8041A08A8041A7F
:103520000AA8041A0CA8041A0EA8041A10A8041A4F
:1035300012A8041A14A8041A16A8041A18A8041A1F
:103540001AA8041A1CA8041A1EA8041A20A8041AEF
:1035500022A8041A24A8041A26A8041A28A8041ABF
:103560002AA8041A2CA8041A2EA8041A30A8041A8F
:1035700032A8041A34A8041A36A8041A38A8041A5F
:103580003AA8041A3CA8041A0146002002E0491C8B
:10359000421CD0B20A78002AF9D170472DE9F041D7
:1035A00005460E4614460027FA48007820B111203F
:1035B00020700020BDE8F0812878012808D002287A
:1035C00007D0032802D0042804D100E000BF00BFC8
:1035D00000BF03E0012020700020EBE700BFFFF7F1
:1035E00041FE0746686930603068FFF7CDFF8046CE
:1035F0003846FFF73BFE002020704046DAE72DE911
:10360000F04105460E4614460027E248007818B1FE
:1036100012202070BDE8F0812878012808D0022807
:1036200007D0032802D0042804D100E000BF00BF67
:1036300000BF02E001202070ECE700BFFFF712FEA0
:1036400007466E613846FFF711FE0020207000BF6C
:10365000E0E7F0B5024612F8384F95785678383AD8
:103660000B4618680FE000F10B073F5DB74300F110
:103670000B0C0CF8047067463F5D17B9877AAF43AF
:1036800087721B1D18680028EDD1F0BDC249C34ADE
:103690001278885CC249095CBF4A515C01EBC001E9
:1036A000C04A1170704710B50024FFF7DBFD0446D7
:1036B000B8480078F8B9BC480078E0B9FFF7E6FFF1
:1036C000BA48B849097850F82100B9490860B548A6
:1036D0000078B849097888420DD0B5480068C06BB9
:1036E000401CB3490968C863B3480068401CB2492C
:1036F0000860FFF7CEFD2046FFF7B8FD10BD70B59E
:1037000001460024AD4D2D68EC61AC4C246821626B
:103710000B4618681BE0A94C246894F8385000F157
:103720000B04645DA54D2D6895F839502C43A34DCD
:103730002D6895F8386000F10B05AC55847A9F4DE3
:103740002D6895F83A502C4384721B1D1868002888
:10375000E1D19A4C246894F83820914CA45C974DA0
:103760002D6895F83950AC438D4DAC542C46A45C73
:1037700044B9924C246894F83A50884C2478AC436D
:10378000864D2C7070BD2DE9FF4F83B081460E46EB
:103790001546DDF84080002000903060CA46DAF817
:1037A000004018E02078062807D2DFE800F0060481
:1037B000050307080AE009E008E000BF00BF012098
:1037C00088F80000002007B0BDE8F08F00BF0AF1C4
:1037D000040ADAF80040002CE4D16E48007820B1E9
:1037E000022088F800000020EDE76F48007820B143
:1037F0000D2088F800000020E5E7FFF733FD00907A
:103800000020029083460190CA46DAF800405DE04D
:103810002078062849D2DFE800F048172A03494AF1
:10382000208960B12089401E208110C601200290AD
:10383000002001C50BF101001FFA80FB03E0019895
:1038400040F0010001903CE0606858B1606801C53B
:103850000020606010C6012002900BF101001FFAE9
:1038600080FB03E0019840F00200019029E06768C6
:10387000F88AA8B13969081D3861086801C5B968B6
:103880003869884201D178683861F88A401EF88228
:1038900010C6012002900BF101001FFA80FB03E02B
:1038A000019840F0040001900BE000BF00BF0098B9
:1038B000FFF7DCFC00203060012088F8000058464B
:1038C00081E700BF0AF1040ADAF80040002C9FD11A
:1038D0000298012809D1002030600098FFF7C6FC4B
:1038E000002088F8000058466DE73448006890F8DA
:1038F0003400019941F0800108433049096881F89A
:10390000340000202D49096881F835002B490698BC
:10391000096808634846FFF7F2FE0098FFF7A6FC27
:10392000FFF7C1FEFFF79EFC00902448006890F866
:10393000350020B101281BD0022818D100E000BFBB
:103940001E480068C4693CB110C6002030600BF10D
:1039500001001FFA80FB09E001201849096881F87D
:103960003500494615480068FFF773FE06E000BFC2
:10397000494612480068FFF76CFE00BF00BF0F48C1
:10398000006890F83500D8B1012842D002283FD114
:1039900038E000001D0000103EA8041A21000010AD
:1039A00022000010200000101E000010E41800107B
:1039B000380000101F00001004000010300000103C
:1039C000207806280DD2DFE800F00C0607030D0E64
:1039D000002001C511E000BFFE480068406A01C533
:1039E0000BE000BF00BF0098FFF740FC00203060F4
:1039F000012088F800005846E5E600BF002088F85E
:103A000000000CE0002001C50E2088F8000006E050
:103A100000BF002001C50A2088F8000000BF00BFD9
:103A20000020EC49096881F83400EA49096881F806
:103A30003500E8490968C861E64909680862E5494E
:103A4000096848620098FFF711FC5846BBE67CB550
:103A5000002514E06946284602F0D7FA064666B902
:103A6000DD4850F8254044B1012C06D0D4E90201CC
:103A700000EB8100A0640198E064681CC5B23F2D92
:103A8000E8DD7CBD002400BF02E0C82002F0C6FBD8
:103A9000D24800780028F8D0D14800686421B0FBF3
:103AA000F1F0CF4908600846006828B90020CD49E8
:103AB0000870FF2002F0EBFA00BFFFF7D3FB0446CB
:103AC000C9480068C94908600020C7490860204605
:103AD000FFF7CCFBC5480068C1490968B0FBF1F0AD
:103AE000C0F16400BF490870FFF723FCFFF7AFFF88
:103AF000642002F093FBE0E700B587B003200021CB
:103B00008022BB4BCDE90132CDE903104FF6FE70A8
:103B10003E23B84A0090AFF2930002F088F806AA5C
:103B2000B5A13E2002F0F3F907B000BD002400BFAC
:103B300000BFFFF797FB0446AB480068401CAA494A
:103B400008602046FFF792FBFFF7EFFBF1E700B5B7
:103B500087B0032000218022AB4BCDE90132CDE9B3
:103B600003104FF6FF703F23A84A0090AFF24300C6
:103B700002F05DF806AAA6A13F2002F0C8F907B03E
:103B800000BD04E0002200F8012B4A1E91B200297A
:103B9000F8D1704770B541F26801A148FFF7F1FF15
:103BA000002411E0601C85B204EB44009C4901EB49
:103BB000C00305EB450001EBC006002018705E60F5
:103BC00098A05861601C84B2AE2CEBD304EB440087
:103BD000934901EBC00300201870586091A0586110
:103BE00008469149086070BD70B54FF4F2618F4886
:103BF000FFF7C7FF4FF480717748FFF7C2FF00243B
:103C000013E0601CC5B204EB440000EBC40087491C
:103C100001EBC00305EB450000EBC50001EBC0065E
:103C20005E6180A01865601CC4B2152CE9D304EB5A
:103C3000440000EBC4007D4901EBC0030020586143
:103C400078A0186500207A490860784879490860AA
:103C500070BD0021784A1170002004E00021774AED
:103C60001154411CC8B20828F8D30021744A1170BD
:103C7000744A1170744A1160564A116070470020EE
:103C80007249086072490870724908707249087078
:103C900072490870724908605349086053490860C6
:103CA0004F4908604D490870704710B5FFF72CFB6D
:103CB000FFF7E5FFFFF7CDFFFFF796FFFFF76AFF7E
:103CC00000F0B4FE01F097F901F099FCFFF73FFF17
:103CD000FFF712FF02F028FEFFF71AFBFFF7CAFBFF
:103CE00010BD5E480078012808D159480078FF28A7
:103CF00004D257480078401C55490870704710B5E9
:103D0000002456480078012830D1FFF7ABFA04466A
:103D10004F48007820B14E480078401E4C4908704A
:103D20004B480078F8B94B480078E0B9FFF7AEFC93
:103D300029484449097850F821004349086041481E
:103D400000783F49097888420DD03F480068C06B31
:103D5000401C3D490968C86341480068401C40490F
:103D60000860FFF79BFA2046FFF780FA10BD10B5F8
:103D700000243A480078012811D1FFF773FA04466D
:103D80003348007840B933480078FF2804D23148DE
:103D90000078401C2F4908702046FFF767FA10BDD5
:103DA00010B500242D48007801286DD1FFF75AFA8C
:103DB00004462848007850B126480078401E25491E
:103DC00008700846007818B9214800784AE058E0A1
:103DD00053E0000030000010E41800101C00001038
:103DE00014000010100000102C000010180000102B
:103DF000E4140010E016001075432F4F532D49496D
:103E00002053746174000000E4160010E0180010E4
:103E100075432F4F532D49492049646C65000000BC
:103E20002C0400103F00000008000010E4190010EE
:103E30003C0000103400001021000010220000108F
:103E40001F00001020000010380000104C0000106F
:103E50001D0000101E0000102B0000102A00001092
:103E60000400001028B92046FFF700FAFFF71BFCFA
:103E70000AE02046FFF7FAF906E02046FFF7F6F9D8
:103E800002E02046FFF7F2F910BD10B5EA480078CD
:103E900090B9FFF7FBFBE9480078E9490870E94869
:103EA000E649097850F82100E749086008460068AB
:103EB000E6490860FFF7DDF910BD10B500240220C7
:103EC00002F0ACF9FFF7CEF904460020E0490860A3
:103ED0002046FFF7CBF9642002F0A0F9FFF7C2F902
:103EE0000446DB480068DB4908600120DA490870B5
:103EF0002046FFF7BBF910BD70B50026FFF77DFA2D
:103F0000FFF7B0F90646D5480068401CD349086061
:103F10003046FFF7ABF9C8480078012853D1D048A4
:103F2000007820B1012804D0022809D103E001253E
:103F30000BE0002509E001250120C949087004E0D3
:103F400001250020C649087000BF00BF05B970BD3B
:103F5000C448046833E0FFF785F90646206B50B388
:103F6000206B401E2063206B28BB94F8340000F0C7
:103F7000370040B114F8340F00F0C8002070012061
:103F80006070343C02E0002084F8350094F834007E
:103F900000F0080078B93834A078B34909780843AC
:103FA000B14908702078B149085C6178084314F879
:103FB0003819AE4A505464693046FFF757F994F8FF
:103FC00036003F28C7D100BFC1E740F22310704739
:103FD000704710B590F8382001F10B039B5C90F806
:103FE0003940A34301F10B04A35423469B5C23B93E
:103FF0008B7A90F83A40A3438B7210BD2DE9F04FB5
:1040000005460F4690469946A87A99490E5C05F1F7
:104010000B00805D11F800B00BEBC60000F0FF0A4A
:10402000884850F82A4000202434E0602760207C33
:1040300020EA0800207484F81190207C243C00F0D1
:10404000080068B994F83A00874909780843864916
:1040500008708648805D94F8391008438349885574
:1040600029462046FFF7B5FF206A20B12046216A85
:10407000FFF7EFFAE5615046BDE8F08F10B5734ADF
:104080001268D061714A126892F8383000F10B0260
:10409000D25C6E4B1B6893F839301A436B4B1B682C
:1040A00093F8384000F10B031A55827A674B1B686E
:1040B00093F83A301A438272644A126892F83810C0
:1040C0006A4A525C614B1B6893F839309A43674BDC
:1040D0005A541A46525C42B95C4A126892F83A3015
:1040E000614A12789A43604B1A7010BD0146002253
:1040F0008A72002005E0002301F10B021354421CD8
:10410000D0B20828F7D3704705E011F8013B00F85A
:10411000013B531E9AB2002AF7D170472DE9F84FA0
:1041200005460F4690469946DDE90AAB002000900F
:10413000FFF798F800904F480468002C76D01C34A4
:1041400054F8080C4B4908600098FFF78FF844F8C2
:104150001C7CA576002020766076606144F818BC4F
:1041600044F810AC44F8148C0C9824F80C0C24F887
:104170000A9C0020E077E810207705F00700E07641
:10418000217F01208840A077E17E01208840607770
:10419000002020606060E060A0602062A062606239
:1041A000E0622063AFF2843060631C3C002606E0CE
:1041B000002104F1540040F82610701CC6B2012EF4
:1041C000F6DB2046FFF713F92046FFF7A2F8FFF7CA
:1041D00049F800901B4840F825402248006860617B
:1041E0000020A0611F48006810B11E48006884616B
:1041F0001C4804603834A0781B49097808431A49E0
:10420000087020781949085C6178084314F8381957
:10421000164A505418480078401C174908700098F6
:10422000FFF724F80020BDE8F88FFFE70098FFF7BC
:104230001DF84220F7E700002A00001020000010BF
:104240001F000010E41800103800001030000010AB
:104250002C000010140000101C0000104C00001076
:10426000400000103C00001021000010220000104F
:104270003EA8041A340000102B0000102DE9F05F56
:1042800004460F4691461E464FF0000B2078052845
:1042900004D0012030700020BDE8F09F09F0800AB2
:1042A000BAF1000F04D029F080094FF0010801E0B5
:1042B0004FF0000800203070FEF7D4FF8346B9F1BC
:1042C000000F2CD0B9F1010F3BD0B9F1020F03D090
:1042D000B9F1030F46D111E0208900EA0705BD427C
:1042E00006D1B8F1010F05D12089A843208101E052
:1042F000702030705846FEF7B9FF3AE0208900EA96
:10430000070535B1B8F1010F05D12089A8432081F7
:1043100001E0702030705846FEF7A8FF29E02089A0
:1043200027EA0005BD4206D1B8F1010F05D1208969
:104330002843208101E0702030705846FEF796FF38
:1043400017E0208927EA000535B1B8F1010F05D142
:1043500020892843208101E0702030705846FEF704
:1043600085FF06E05846FEF781FF00256F2030707C
:1043700000BF00BF28468FE72DE9F04106460D46F5
:104380000027FA48007820B1102028700020BDE8EE
:10439000F081FEF767FF0746F548046884B10068BE
:1043A0004068F34908600520207026810020606085
:1043B000F0A0E0603846FEF759FF0020287004E0C6
:1043C0003846FEF753FF722028702046DFE730B5ED
:1043D00001464A6808682AB9CC68606028B100259F
:1043E000456002E0106000B142608B6800259D626C
:1043F00030BDF0B506460F46B46800202C3460602E
:104400002780207A00F0DF00207200206072207A7E
:104410002C3C88B93834A078D74909780843D64964
:1044200008702078D549085C6178084314F8381979
:10443000D24A5054012500E000253046FFF7C7FF5F
:104440002846F0BD2DE9F0470446894615464FF051
:10445000000AC648007820B10F2028702046BDE829
:10446000F0872078052803D0012028702046F6E741
:10447000FEF7F8FE8246606808B1012700E00027D9
:10448000B9F1000F03D0B9F1010F3CD119E08FB998
:10449000B8A0E06000202070B5480068606000208F
:1044A0002081B34804605046FEF7E0FE00202870EB
:1044B000002605E05046FEF7D9FE49202870264622
:1044C00028E0D4F8048005E000214046FFF791FF82
:1044D000D8F80080B8F1000FF6D1A6A0E060002067
:1044E0002070A3480068606000202081A04804601C
:1044F0005046FEF7BBFE012F01D1FFF7D4F8002094
:104500002870002606E05046FEF7B0FE072028700F
:10451000264600BF00BF3046A1E72DE9F041054621
:104520000E46144600279148007820B111202070D3
:104530000020BDE8F081FEF795FE074628780528A3
:1045400006D03846FEF792FE012020700020F0E7EA
:10455000E86830603068FFF717F880463846FEF7A5
:1045600085FE002020704046E3E72DE9F041054636
:104570000E46144600277D48007818B1122020709E
:10458000BDE8F081FEF76EFE07462878052805D0C5
:104590003846FEF76BFE01202070F1E7EE603846EA
:1045A000FEF764FE0020207000BFE9E7F0B5144676
:1045B000059E734F3F6897F8347047F02007DFF887
:1045C000C0C1DCF800C08CF834700027DFF8B0C13F
:1045D000DCF800C08CF83570694F3F683E63684F67
:1045E0003F68B9620C828B74654F3F688F60476883
:1045F0000F6000274F60C860456805B16960416081
:104600005F4F3F6897F838205C4FBF5CDFF870C1A0
:10461000DCF800C09CF839C027EA0C07DFF85CC161
:104620000CF802706746BF5C5FB9554F3F6897F85A
:104630003AC0514F3F7827EA0C07DFF83CC18CF8AD
:104640000070F0BD2DE9F04F89B005460F46914648
:104650009A46129E002002904448007828B1022019
:104660003070002009B0BDE8F08F4648007818B1DE
:104670000D2030700020F5E72878052803D00120B0
:1046800030700020EEE709F0800BBBF1000F04D082
:1046900009F07F094FF0010801E04FF00008FEF734
:1046A000E1FD0290B9F1000F4AD0B9F1010F78D0C5
:1046B000B9F1020F03D0B9F1030F71D120E02889BD
:1046C00000EA0704BC420FD1B8F1010F02D12889DA
:1046D000A04328812A48006884850298FEF7C6FD19
:1046E000002030702046BDE74B463A4604A92846D4
:1046F000CDF800A0FFF75AFF0298FEF7B7FD78E06B
:10470000288900EA07047CB1B8F1010F02D1288999
:10471000A04328811A48006884850298FEF7A6FD08
:104720000020307020469DE74B463A4604A92846B3
:10473000CDF800A0FFF73AFF0298FEF797FD58E08A
:10474000288927EA0004BC421ED1B8F1010F02D12A
:104750002889204328810A48006884850298FEF74A
:1047600085FD0020307020467CE71AE01D00001017
:104770000C0000103F00000021000010220000107B
:10478000300000101E0000104B463A4604A928468F
:10479000CDF800A0FFF70AFF0298FEF767FD28E0BA
:1047A0001FE0288927EA00047CB1B8F1010F02D18B
:1047B000288920432881B148006884850298FEF743
:1047C00055FD0020307020464CE74B463A4604A980
:1047D0002846CDF800A0FFF7E9FE0298FEF746FD57
:1047E00007E00298FEF742FD00246F20307020465B
:1047F00038E700BFFEF757FFFEF734FD02909F48F1
:10480000006890F8350020B39C48006890F83500A7
:10481000039000209949096881F8350004A8FFF742
:10482000D6FD00209549096881F834000298FEF70A
:104830001DFD00240398012805D0022802D10E2076
:10484000307003E000BF0A20307000BF00BF204678
:1048500008E78A480068848DB8F1010F1ED1B9F1CC
:10486000000F0ED0B9F1010F0CD0B9F1020F03D037
:10487000B9F1030F0AD100E000BF2889A0432881C5
:104880000BE000BF28892043288106E00298FEF74C
:10489000EDFC6F2030700020E4E600BF0298FEF7C8
:1048A000E5FC002030702046DCE670B50025FEF700
:1048B000D9FC054671480068848D2846FEF7D6FC71
:1048C000204670BD2DE9FC5F0446894692461E468F
:1048D000002000902078052804D0012030700020AE
:1048E000BDE8FC9FFEF7BEFC0090BAF1000F03D0BC
:1048F000BAF1010F0AD104E0208920EA09002081E1
:104900000BE0208940EA0900208106E00098FEF7CC
:10491000ADFC712030700020E2E700BF4FF0000BCB
:10492000656855E0A87C40B3012838D0022802D041
:10493000032844D111E02089298A00EA0107288A46
:10494000B84209D139462846FFF753FD8046B8F1F1
:10495000010F01D14FF0010B38E02089298A00EACC
:1049600001074FB139462846FFF743FD8046B8F1AD
:10497000010F01D14FF0010B28E0288A218920EA9C
:104980000107288AB84209D139462846FFF731FD88
:104990008046B8F1010F01D14FF0010B16E0288AD3
:1049A000218920EA01074FB139462846FFF721FD4A
:1049B0008046B8F1010F01D14FF0010B06E00098DD
:1049C000FEF754FC6F203070002089E700BF2D688F
:1049D000002DA7D10098FEF749FCBBF1010F01D1D2
:1049E000FEF761FEFEF73EFC0090208901900098E2
:1049F000FEF73CFC00203070019871E72DE9F04192
:104A000004460D4600272078052804D00120287090
:104A10000020BDE8F081FEF725FC074626893846D0
:104A2000FEF724FC002028703046F2E72DE9F04123
:104A300050211348FFF7A5F800250EE0681C86B248
:104A40000F4800EB051400EB06170020207067608C
:104A5000AFF2E020E060681C85B2042DEED3084878
:104A600000EB0514002020706060AFF2F820E060D9
:104A7000034804490860BDE8F081000030000010E0
:104A8000941400100C00001070B504460026207825
:104A9000012801D0002070BDFEF7E4FB06466568E2
:104AA000002060603046FEF7E1FB2846F3E770B572
:104AB00005460026E848007808B1002070BDFEF7E2
:104AC000D1FB0646E5480468006820B1E348006869
:104AD0004068E24908603046FEF7C8FB4CB101204F
:104AE0002070002020816560DDA060612046FFF716
:104AF000FDFA2046E2E72DE9F047044688461546D0
:104B00004FF000092078012804D0012028702046A9
:104B1000BDE8F087D048007818B10F2028702046F3
:104B2000F6E7FEF79FFB8146A07A08B1012700E077
:104B30000027B8F1000F03D0B8F1010F3AD119E006
:104B40008FB9C7A0606100202070C4480068606011
:104B500000202081C14804604846FEF787FB002002
:104B60002870002605E04846FEF780FB49202870A3
:104B7000264626E005E00023022219462046FFF7DC
:104B80003DFAA07A0028F6D1B5A06061002020701F
:104B9000B2480068606000202081B0480460484648
:104BA000FEF764FB012F01D1FEF77DFD0020287088
:104BB000002606E04846FEF759FB072028702646E7
:104BC00000BF00BF3046A3E72DE9F04105460F4680
:104BD00014464FF000082878012804D001202070E6
:104BE0000020BDE8F0819C48007818B102202070B8
:104BF0000020F6E79B48007818B10D2020700020B7
:104C0000EFE7FEF72FFB80466E6846B10020686034
:104C10004046FEF72BFB002020703046E1E792482B
:104C2000006890F8340040F002008F49096881F86C
:104C3000340000208C49096881F835008A480068F2
:104C400007632846FFF71AFA4046FEF70FFBFEF708
:104C50002AFDFEF707FB80468348006890F8350080
:104C600020B101280DD002280AD105E07E48006855
:104C7000466A002020700DE000260E20207009E01A
:104C800000BF294678480068FFF7A3F900260A20EC
:104C9000207000BF00BF00207349096881F834000C
:104CA0007149096881F835006F490968C8616E4922
:104CB000096808626C49096848624046FEF7D6FAFE
:104CC00030468EE72DE9F04104460F4615464FF079
:104CD00000082078012804D0012028700020BDE8B9
:104CE000F081FEF7BFFA8046A07A20B300267FB19C
:104CF000012F0CD107E002231A4600212046FFF7BE
:104D00007DF9701CC6B2A07A0028F4D109E000BF7A
:104D100002231A4600212046FFF770F9701CC6B224
:104D200000BF00BF4046FEF7A1FAFEF7BCFC0E2014
:104D300028703046D3E74046FEF798FA00202870E6
:104D400000BFCCE770B504460D4600262078012848
:104D500001D0012070BDFEF785FA0646A07A60B149
:104D60000023022229462046FFF748F93046FEF785
:104D70007DFAFEF798FC0020ECE7606820B1304631
:104D8000FEF774FA1420E5E765603046FEF76EFA28
:104D90000020DFE72DE9F04104460E4615460027C6
:104DA0002078012802D00120BDE8F081FEF75AFAF0
:104DB0000746A07AE8B105F0010050B105E00023F4
:104DC000022231462046FFF719F9A07A0028F6D1D1
:104DD00005E00023022231462046FFF70FF938464E
:104DE000FEF744FA05F0040008B9FEF75CFC002069
:104DF000DAE7606820B13846FEF738FA1420D3E7C6
:104E000066603846FEF732FA0020CDE72DE9F0471C
:104E100004460D464FF000092078012802D00120F9
:104E2000BDE8F087FEF71EFA8146A07A287304F1E8
:104E30000B0705F10408002605E017F8010B08F838
:104E4000010B701CC6B2082EF7D360682860484674
:104E5000FEF70CFA0020E3E71D0000100800001028
:104E60003F0000001E000010300000102DE9FC5F24
:104E700005460F4691469A4600200090FEF7F2F94B
:104E800000906F480468006820B16D480068406871
:104E90006B4908600098FEF7E9F92CB95A208AF8A6
:104EA00000000020BDE8FC9FA8462E46781E019019
:104EB0004FF0000B05E04E44C8F80060B0460BF11F
:104EC000010B01988345F6D30020C8F80000256047
:104ED00065602761E760C4F808908AF80000204602
:104EE000E0E72DE9F04104460D460027FEF7BAF948
:104EF0000746206968B16668306860602069401EB6
:104F000020613846FEF7B2F9002028703046BDE82F
:104F1000F0813846FEF7AAF95D2028700020F6E7F8
:104F20002DE9F04106460C46154600274548007815
:104F300020B1112028700020BDE8F081FEF792F921
:104F40000746706920602068FEF71EFB80463846E1
:104F5000FEF78CF9002028704046EDE72DE9F0417E
:104F600005460E46144600273648007818B1122030
:104F70002070BDE8F081FEF775F907466E6138468E
:104F8000FEF774F90020207000BFF2E770B5044608
:104F90000D460026FEF766F90646D4E9031088425E
:104FA00004D33046FEF762F95E2070BD6068286069
:104FB00065602069401C20613046FEF757F90020EB
:104FC000F3E770B505460C460026FEF74BF906469A
:104FD0002868206068686060A868A060E868E06091
:104FE000286920613046FEF741F9D4E90301401AEF
:104FF0006061002070BD70B578211348FEF7C1FDD7
:1050000000240EE004EB44000F4901EBC005601CD6
:1050100000EB400001EBC00068600CA06861601C00
:1050200084B2042CEED304EB4400074901EBC00525
:105030000020686005A0686108460149086070BDED
:10504000440000101D000010742100103F000000FB
:105050002DE9F04106460D464FF000083078022851
:1050600004D0012028700020BDE8F081FEF7FAF896
:1050700080467468E08A78B12169081D20610F6854
:10508000E08A401EE082A1682069884201D1606800
:1050900020610020287002E01F2028700027404671
:1050A000FEF7E4F83846DFE72DE9F04106460F4603
:1050B0004FF00008F748007810B10020BDE8F081FB
:1050C000FEF7D0F88046F4480468006820B1F24842
:1050D00000684068F04908604046FEF7C7F8FCB138
:1050E000FEF7C0F88046ED480568D5B10068006855
:1050F000EA4908604046FEF7B9F86E6006EB8700A3
:10510000A860EE602E61AF820020E882022020704D
:10511000002020816560E2A060612046FEF7E6FF86
:1051200008E0DD4800686060DB4804604046FEF748
:105130009DF800242046C1E72DE9F0470446894642
:1051400015464FF0000A2078022804D0012028706C
:105150002046BDE8F087CF48007818B10F202870AE
:105160002046F6E7FEF77EF88246A07A10B14FF0AF
:10517000010801E04FF00008B9F1000F03D0B9F1C8
:10518000010F49D121E0B8F1000F17D1C4A060612F
:105190006668C24800683060C04806600020207021
:1051A000BD480068606000202081BB480460504614
:1051B000FEF75CF800202870002705E05046FEF757
:1051C00055F84920287027462DE005E000230422E9
:1051D00019462046FEF712FFA07A0028F6D1B0A0AB
:1051E00060616668AD4800683060AC4806600020C9
:1051F0002070A9480068606000202081A6480460F3
:105200005046FEF733F8B8F1010F01D1FEF74BFA23
:1052100000202870002706E05046FEF727F80720F8
:105220002870274600BF00BF384692E770B5054694
:105230000026FEF717F806466C686068E060606854
:1052400020610020E0823046FEF710F8002070BD9B
:105250002DE9F0470746884615464FF00009387893
:10526000022804D0012028700020BDE8F08789487A
:10527000007818B1022028700020F6E789480078ED
:1052800018B10D2028700020EFE7FDF7EBFF8146F5
:105290007C68E08A98B12169081D20610E68E08A67
:1052A000401EE082A1682069884201D160682061C7
:1052B0004846FDF7DBFF002028703046D5E77A48E6
:1052C000006890F8340040F004007749096881F8DC
:1052D000340000207449096881F83500724800687C
:1052E000C0F830803846FEF7C9FE4846FDF7BEFFDD
:1052F000FEF7D9F9FDF7B6FF81466B48006890F8D4
:10530000350020B101280DD002280AD105E06648F9
:105310000068466A002028700DE000260E202870E4
:1053200009E000BF394660480068FEF752FE0026DB
:105330000A20287000BF00BF00205B49096881F87F
:1053400034005949096881F8350057490968C8612E
:105350005549096808625449096848624846FDF79A
:1053600085FF304681E72DE9F04104460F4615469A
:105370004FF000082078022804D001202870002077
:10538000BDE8F081FDF76EFF8046A07A20B30026CD
:105390007FB1012F0CD107E0022304220021204617
:1053A000FEF72CFE701CC6B2A07A0028F4D109E0EA
:1053B00000BF0223042200212046FEF71FFE701CBE
:1053C000C6B200BF00BF4046FDF750FFFEF76BF9C5
:1053D0000E2028703046D3E74046FDF747FF0020F7
:1053E000287000BFCCE72DE9F04105460E460027A6
:1053F0002878022802D00120BDE8F081FDF732FFB5
:105400000746A87A60B10023042231462846FEF7F9
:10541000F5FD3846FDF72AFFFEF745F90020EBE7DA
:105420006C68E08AA18A884204DB3846FDF71EFFDB
:105430001E20E1E7E168081DE0600E60E08A401C84
:10544000E082D4E90210884201D16068E060384609
:10545000FDF70CFF0020CFE72DE9F04105460E4691
:1054600000272878022802D00120BDE8F081FDF74E
:10547000F9FE0746A87AC8B100230422314628461F
:10548000FEF7BCFD3846FDF7F1FEFEF70CF90020F3
:10549000EBE700001D00001008000010480000109D
:1054A0003F0000001E000010300000106C68E08A11
:1054B000A18A884204DB3846FDF7D8FE1E20D4E7D7
:1054C00061682069884201D1A06820612069001FBD
:1054D000206120690660E08A401CE0823846FDF7C2
:1054E000C5FE0020C1E72DE9F04105460F461646EE
:1054F0004FF000082878022802D00120BDE8F08192
:10550000FDF7B0FE8046A87AE8B106F0010050B180
:1055100005E00023042239462846FEF76FFDA87AED
:105520000028F6D105E00023042239462846FEF77C
:1055300065FD4046FDF79AFE06F0040008B9FEF747
:10554000B2F80020DAE76C68E08AA18A884204DBBE
:105550004046FDF78BFE1E20D0E706F0020058B152
:1055600061682069884201D1A06820612069001F1C
:1055700020612069076009E0E168081DE0600F60B4
:10558000D4E90210884201D16068E060E08A401CE2
:10559000E0824046FDF76AFE0020AFE72DE9F047C4
:1055A00005460C464FF0000A2878022802D0012058
:1055B000BDE8F087FDF756FE8246A87A207405F113
:1055C0000B0804F10809002705E018F8010B09F899
:1055D000010B781CC7B2082FF7D36E68F08A18B198
:1055E00030690068206001E000202060F08AA0801F
:1055F000B08AE0805046FDF739FE0020D8E72DE95B
:10560000F04160211048FEF7BCFA00240DE0601C58
:1056100086B204EB44000C4901EBC00506EB4600E2
:1056200001EBC0072F60601C84B2032CEFD304EBA6
:105630004400054901EBC0050020286008460349E5
:105640000860BDE8F0810000EC2100104800001067
:1056500070B5044600262078032801D0002070BDD4
:10566000FDF700FE0646258915B12089401E2081E0
:105670003046FDF7FBFD2846F1E770B505460026EC
:10568000D748007808B1002070BDFDF7EBFD064655
:10569000D4480468006820B1D24800684068D14905
:1056A00008603046FDF7E2FD4CB1032020702581F3
:1056B00000206060CCA060612046FEF717FD204608
:1056C000E2E72DE9F0470446884615464FF0000909
:1056D0002078032804D0012028702046BDE8F087F8
:1056E000BF48007818B10F2028702046F6E7FDF774
:1056F000B9FD8146A07A08B1012700E00027B8F182
:10570000000F03D0B8F1010F3AD119E08FB9B6A05C
:10571000606100202070B348006860600020208134
:10572000B04804604846FDF7A1FD0020287000261F
:1057300005E04846FDF79AFD49202870264626E0F8
:1057400005E00023012219462046FEF757FCA07A07
:105750000028F6D1A4A0606100202070A148006854
:105760006060002020819F4804604846FDF77EFD70
:10577000012F01D1FDF797FF00202870002606E0D9
:105780004846FDF773FD07202870264600BF00BF7E
:105790003046A3E72DE9F04105460E4614460027A2
:1057A0002878032803D001202070BDE8F0818C48C0
:1057B000007810B102202070F7E78C48007810B113
:1057C0000D202070F1E7FDF74DFD0746288940B117
:1057D0002889401E28813846FDF748FD00202070AA
:1057E000E3E78348006890F8340040F00100804906
:1057F000096881F8340000207D49096881F8350086
:105800007B48006806632846FEF738FC3846FDF7FB
:105810002DFDFDF748FFFDF725FD0746744800689C
:1058200090F8350020B1012809D0022806D102E005
:10583000002020700BE00E20207008E000BF2946F9
:105840006B480068FEF7C5FB0A20207000BF00BF50
:1058500000206749096881F834006549096881F8C2
:10586000350063490968C8616149096808623846BA
:10587000FDF7FCFC00BF98E72DE9F04104460F4618
:1058800015464FF000082078032804D00120287026
:105890000020BDE8F081FDF7E5FC8046A07A20B34A
:1058A00000267FB1012F0CD107E002230122002145
:1058B0002046FEF7A3FB701CC6B2A07A0028F4D1E4
:1058C00009E000BF0223012200212046FEF796FBDB
:1058D000701CC6B200BF00BF4046FDF7C7FCFDF715
:1058E000E2FE0E2028703046D3E74046FDF7BEFCAE
:1058F0000020287000BFCCE770B504460025207852
:10590000032801D0012070BDFDF7ACFC0546A07A4C
:1059100060B10023012219462046FEF76FFB28469E
:10592000FDF7A4FCFDF7BFFE0020ECE720894FF651
:10593000FF71884207D22089401C20812846FDF74C
:1059400095FC0020DFE72846FDF790FC3320DAE7DE
:105950002DE9F04704460D464FF000092078032852
:1059600002D00120BDE8F087FDF77CFC8146A07ADB
:10597000A87204F10B0705F10208002605E017F8EC
:10598000010B08F8010B701CC6B2082EF7D3208952
:1059900028804846FDF76AFC0020E3E72DE9F04146
:1059A00004460E46154600272078032803D0012020
:1059B0002870BDE8F081FDF755FC074600202870EF
:1059C000208908B1268105E0A07A08B9268101E086
:1059D000492028703846FDF749FC00BFE9E7000080
:1059E0001D000010080000103F0000001E00001005
:1059F000300000102DE9F34F85B08846002001905B
:105A0000FDF730FC0190FE4850F8280030B10198B5
:105A1000FDF72CFC282007B0BDE8F08F0598FF2883
:105A200004D1F848006890F836000590F4490598CC
:105A300051F8205025B90198FDF718FC2920EAE714
:105A4000012D04D10198FDF711FC4320E3E74FEA53
:105A5000E80708F0070003900120B84000F0FF09B4
:105A600001210398814001F0FF0A0021E44A0598D2
:105A700042F82010104640F8285095F8386095F804
:105A80003A00029095F839B0DF48805D00EA0B00DB
:105A9000D0B1DD48805D20EA0B00DB49885508461F
:105AA000805D28B9D948007802998843D7490870A1
:105AB000D648007840EA0900D4490870D248C05D51
:105AC00040EA0A00D049C855EC69D4B104F10B0092
:105AD000805D20EA0B0004F10B0188550846805DCB
